{
  "contractName": "NftMarket",
  "abi": [
    {
      "inputs": [],
      "stateMutability": "nonpayable",
      "type": "constructor"
    },
    {
      "anonymous": false,
      "inputs": [
        {
          "indexed": true,
          "internalType": "address",
          "name": "owner",
          "type": "address"
        },
        {
          "indexed": true,
          "internalType": "address",
          "name": "approved",
          "type": "address"
        },
        {
          "indexed": true,
          "internalType": "uint256",
          "name": "tokenId",
          "type": "uint256"
        }
      ],
      "name": "Approval",
      "type": "event"
    },
    {
      "anonymous": false,
      "inputs": [
        {
          "indexed": true,
          "internalType": "address",
          "name": "owner",
          "type": "address"
        },
        {
          "indexed": true,
          "internalType": "address",
          "name": "operator",
          "type": "address"
        },
        {
          "indexed": false,
          "internalType": "bool",
          "name": "approved",
          "type": "bool"
        }
      ],
      "name": "ApprovalForAll",
      "type": "event"
    },
    {
      "anonymous": false,
      "inputs": [
        {
          "indexed": false,
          "internalType": "uint256",
          "name": "tokenId",
          "type": "uint256"
        },
        {
          "indexed": false,
          "internalType": "uint256",
          "name": "price",
          "type": "uint256"
        },
        {
          "indexed": false,
          "internalType": "address",
          "name": "creator",
          "type": "address"
        },
        {
          "indexed": false,
          "internalType": "bool",
          "name": "isListed",
          "type": "bool"
        }
      ],
      "name": "NftItemCreated",
      "type": "event"
    },
    {
      "anonymous": false,
      "inputs": [
        {
          "indexed": true,
          "internalType": "address",
          "name": "previousOwner",
          "type": "address"
        },
        {
          "indexed": true,
          "internalType": "address",
          "name": "newOwner",
          "type": "address"
        }
      ],
      "name": "OwnershipTransferred",
      "type": "event"
    },
    {
      "anonymous": false,
      "inputs": [
        {
          "indexed": true,
          "internalType": "address",
          "name": "from",
          "type": "address"
        },
        {
          "indexed": true,
          "internalType": "address",
          "name": "to",
          "type": "address"
        },
        {
          "indexed": true,
          "internalType": "uint256",
          "name": "tokenId",
          "type": "uint256"
        }
      ],
      "name": "Transfer",
      "type": "event"
    },
    {
      "inputs": [
        {
          "internalType": "address",
          "name": "to",
          "type": "address"
        },
        {
          "internalType": "uint256",
          "name": "tokenId",
          "type": "uint256"
        }
      ],
      "name": "approve",
      "outputs": [],
      "stateMutability": "nonpayable",
      "type": "function"
    },
    {
      "inputs": [
        {
          "internalType": "address",
          "name": "owner",
          "type": "address"
        }
      ],
      "name": "balanceOf",
      "outputs": [
        {
          "internalType": "uint256",
          "name": "",
          "type": "uint256"
        }
      ],
      "stateMutability": "view",
      "type": "function",
      "constant": true
    },
    {
      "inputs": [
        {
          "internalType": "uint256",
          "name": "tokenId",
          "type": "uint256"
        }
      ],
      "name": "getApproved",
      "outputs": [
        {
          "internalType": "address",
          "name": "",
          "type": "address"
        }
      ],
      "stateMutability": "view",
      "type": "function",
      "constant": true
    },
    {
      "inputs": [
        {
          "internalType": "address",
          "name": "owner",
          "type": "address"
        },
        {
          "internalType": "address",
          "name": "operator",
          "type": "address"
        }
      ],
      "name": "isApprovedForAll",
      "outputs": [
        {
          "internalType": "bool",
          "name": "",
          "type": "bool"
        }
      ],
      "stateMutability": "view",
      "type": "function",
      "constant": true
    },
    {
      "inputs": [],
      "name": "listingPrice",
      "outputs": [
        {
          "internalType": "uint256",
          "name": "",
          "type": "uint256"
        }
      ],
      "stateMutability": "view",
      "type": "function",
      "constant": true
    },
    {
      "inputs": [],
      "name": "name",
      "outputs": [
        {
          "internalType": "string",
          "name": "",
          "type": "string"
        }
      ],
      "stateMutability": "view",
      "type": "function",
      "constant": true
    },
    {
      "inputs": [],
      "name": "owner",
      "outputs": [
        {
          "internalType": "address",
          "name": "",
          "type": "address"
        }
      ],
      "stateMutability": "view",
      "type": "function",
      "constant": true
    },
    {
      "inputs": [
        {
          "internalType": "uint256",
          "name": "tokenId",
          "type": "uint256"
        }
      ],
      "name": "ownerOf",
      "outputs": [
        {
          "internalType": "address",
          "name": "",
          "type": "address"
        }
      ],
      "stateMutability": "view",
      "type": "function",
      "constant": true
    },
    {
      "inputs": [],
      "name": "renounceOwnership",
      "outputs": [],
      "stateMutability": "nonpayable",
      "type": "function"
    },
    {
      "inputs": [
        {
          "internalType": "address",
          "name": "from",
          "type": "address"
        },
        {
          "internalType": "address",
          "name": "to",
          "type": "address"
        },
        {
          "internalType": "uint256",
          "name": "tokenId",
          "type": "uint256"
        }
      ],
      "name": "safeTransferFrom",
      "outputs": [],
      "stateMutability": "nonpayable",
      "type": "function"
    },
    {
      "inputs": [
        {
          "internalType": "address",
          "name": "from",
          "type": "address"
        },
        {
          "internalType": "address",
          "name": "to",
          "type": "address"
        },
        {
          "internalType": "uint256",
          "name": "tokenId",
          "type": "uint256"
        },
        {
          "internalType": "bytes",
          "name": "data",
          "type": "bytes"
        }
      ],
      "name": "safeTransferFrom",
      "outputs": [],
      "stateMutability": "nonpayable",
      "type": "function"
    },
    {
      "inputs": [
        {
          "internalType": "address",
          "name": "operator",
          "type": "address"
        },
        {
          "internalType": "bool",
          "name": "approved",
          "type": "bool"
        }
      ],
      "name": "setApprovalForAll",
      "outputs": [],
      "stateMutability": "nonpayable",
      "type": "function"
    },
    {
      "inputs": [
        {
          "internalType": "bytes4",
          "name": "interfaceId",
          "type": "bytes4"
        }
      ],
      "name": "supportsInterface",
      "outputs": [
        {
          "internalType": "bool",
          "name": "",
          "type": "bool"
        }
      ],
      "stateMutability": "view",
      "type": "function",
      "constant": true
    },
    {
      "inputs": [],
      "name": "symbol",
      "outputs": [
        {
          "internalType": "string",
          "name": "",
          "type": "string"
        }
      ],
      "stateMutability": "view",
      "type": "function",
      "constant": true
    },
    {
      "inputs": [
        {
          "internalType": "uint256",
          "name": "tokenId",
          "type": "uint256"
        }
      ],
      "name": "tokenURI",
      "outputs": [
        {
          "internalType": "string",
          "name": "",
          "type": "string"
        }
      ],
      "stateMutability": "view",
      "type": "function",
      "constant": true
    },
    {
      "inputs": [
        {
          "internalType": "address",
          "name": "from",
          "type": "address"
        },
        {
          "internalType": "address",
          "name": "to",
          "type": "address"
        },
        {
          "internalType": "uint256",
          "name": "tokenId",
          "type": "uint256"
        }
      ],
      "name": "transferFrom",
      "outputs": [],
      "stateMutability": "nonpayable",
      "type": "function"
    },
    {
      "inputs": [
        {
          "internalType": "address",
          "name": "newOwner",
          "type": "address"
        }
      ],
      "name": "transferOwnership",
      "outputs": [],
      "stateMutability": "nonpayable",
      "type": "function"
    },
    {
      "inputs": [
        {
          "internalType": "uint256",
          "name": "newPrice",
          "type": "uint256"
        }
      ],
      "name": "setListingPrice",
      "outputs": [],
      "stateMutability": "nonpayable",
      "type": "function"
    },
    {
      "inputs": [
        {
          "internalType": "uint256",
          "name": "tokenId",
          "type": "uint256"
        }
      ],
      "name": "getNftItem",
      "outputs": [
        {
          "components": [
            {
              "internalType": "uint256",
              "name": "tokenId",
              "type": "uint256"
            },
            {
              "internalType": "uint256",
              "name": "price",
              "type": "uint256"
            },
            {
              "internalType": "address",
              "name": "creator",
              "type": "address"
            },
            {
              "internalType": "bool",
              "name": "isListed",
              "type": "bool"
            }
          ],
          "internalType": "struct NftMarket.NftItem",
          "name": "",
          "type": "tuple"
        }
      ],
      "stateMutability": "view",
      "type": "function",
      "constant": true
    },
    {
      "inputs": [],
      "name": "listedItemsCount",
      "outputs": [
        {
          "internalType": "uint256",
          "name": "",
          "type": "uint256"
        }
      ],
      "stateMutability": "view",
      "type": "function",
      "constant": true
    },
    {
      "inputs": [
        {
          "internalType": "string",
          "name": "tokenURI",
          "type": "string"
        }
      ],
      "name": "tokenUriExists",
      "outputs": [
        {
          "internalType": "bool",
          "name": "",
          "type": "bool"
        }
      ],
      "stateMutability": "view",
      "type": "function",
      "constant": true
    },
    {
      "inputs": [],
      "name": "totalSupply",
      "outputs": [
        {
          "internalType": "uint256",
          "name": "",
          "type": "uint256"
        }
      ],
      "stateMutability": "view",
      "type": "function",
      "constant": true
    },
    {
      "inputs": [
        {
          "internalType": "uint256",
          "name": "index",
          "type": "uint256"
        }
      ],
      "name": "tokenByIndex",
      "outputs": [
        {
          "internalType": "uint256",
          "name": "",
          "type": "uint256"
        }
      ],
      "stateMutability": "view",
      "type": "function",
      "constant": true
    },
    {
      "inputs": [
        {
          "internalType": "address",
          "name": "owner",
          "type": "address"
        },
        {
          "internalType": "uint256",
          "name": "index",
          "type": "uint256"
        }
      ],
      "name": "tokenOfOwnerByIndex",
      "outputs": [
        {
          "internalType": "uint256",
          "name": "",
          "type": "uint256"
        }
      ],
      "stateMutability": "view",
      "type": "function",
      "constant": true
    },
    {
      "inputs": [],
      "name": "getAllNftsOnSale",
      "outputs": [
        {
          "components": [
            {
              "internalType": "uint256",
              "name": "tokenId",
              "type": "uint256"
            },
            {
              "internalType": "uint256",
              "name": "price",
              "type": "uint256"
            },
            {
              "internalType": "address",
              "name": "creator",
              "type": "address"
            },
            {
              "internalType": "bool",
              "name": "isListed",
              "type": "bool"
            }
          ],
          "internalType": "struct NftMarket.NftItem[]",
          "name": "",
          "type": "tuple[]"
        }
      ],
      "stateMutability": "view",
      "type": "function",
      "constant": true
    },
    {
      "inputs": [],
      "name": "getOwnedNfts",
      "outputs": [
        {
          "components": [
            {
              "internalType": "uint256",
              "name": "tokenId",
              "type": "uint256"
            },
            {
              "internalType": "uint256",
              "name": "price",
              "type": "uint256"
            },
            {
              "internalType": "address",
              "name": "creator",
              "type": "address"
            },
            {
              "internalType": "bool",
              "name": "isListed",
              "type": "bool"
            }
          ],
          "internalType": "struct NftMarket.NftItem[]",
          "name": "",
          "type": "tuple[]"
        }
      ],
      "stateMutability": "view",
      "type": "function",
      "constant": true
    },
    {
      "inputs": [
        {
          "internalType": "string",
          "name": "tokenURI",
          "type": "string"
        },
        {
          "internalType": "uint256",
          "name": "price",
          "type": "uint256"
        }
      ],
      "name": "mintToken",
      "outputs": [
        {
          "internalType": "uint256",
          "name": "",
          "type": "uint256"
        }
      ],
      "stateMutability": "payable",
      "type": "function",
      "payable": true
    },
    {
      "inputs": [
        {
          "internalType": "uint256",
          "name": "tokenId",
          "type": "uint256"
        }
      ],
      "name": "buyNft",
      "outputs": [],
      "stateMutability": "payable",
      "type": "function",
      "payable": true
    },
    {
      "inputs": [
        {
          "internalType": "uint256",
          "name": "tokenId",
          "type": "uint256"
        },
        {
          "internalType": "uint256",
          "name": "newPrice",
          "type": "uint256"
        }
      ],
      "name": "placeNftOnSale",
      "outputs": [],
      "stateMutability": "payable",
      "type": "function",
      "payable": true
    },
    {
      "inputs": [
        {
          "internalType": "uint256",
          "name": "tokenId",
          "type": "uint256"
        }
      ],
      "name": "burnToken",
      "outputs": [],
      "stateMutability": "nonpayable",
      "type": "function"
    }
  ],
  "bytecode": "0x60806040526658d15e176280006008553480156200001c57600080fd5b506040518060400160405280600c81526020017f4372656174757265734e465400000000000000000000000000000000000000008152506040518060400160405280600481526020017f434e46540000000000000000000000000000000000000000000000000000000081525081600090816200009a91906200041d565b508060019081620000ac91906200041d565b505050620000cf620000c3620000d560201b60201c565b620000dd60201b60201c565b62000504565b600033905090565b6000600760009054906101000a900473ffffffffffffffffffffffffffffffffffffffff16905081600760006101000a81548173ffffffffffffffffffffffffffffffffffffffff021916908373ffffffffffffffffffffffffffffffffffffffff1602179055508173ffffffffffffffffffffffffffffffffffffffff168173ffffffffffffffffffffffffffffffffffffffff167f8be0079c531659141344cd1fd0a4f28419497f9722a3daafe3b4186f6b6457e060405160405180910390a35050565b600081519050919050565b7f4e487b7100000000000000000000000000000000000000000000000000000000600052604160045260246000fd5b7f4e487b7100000000000000000000000000000000000000000000000000000000600052602260045260246000fd5b600060028204905060018216806200022557607f821691505b6020821081036200023b576200023a620001dd565b5b50919050565b60008190508160005260206000209050919050565b60006020601f8301049050919050565b600082821b905092915050565b600060088302620002a57fffffffffffffffffffffffffffffffffffffffffffffffffffffffffffffffff8262000266565b620002b1868362000266565b95508019841693508086168417925050509392505050565b6000819050919050565b6000819050919050565b6000620002fe620002f8620002f284620002c9565b620002d3565b620002c9565b9050919050565b6000819050919050565b6200031a83620002dd565b62000332620003298262000305565b84845462000273565b825550505050565b600090565b620003496200033a565b620003568184846200030f565b505050565b5b818110156200037e57620003726000826200033f565b6001810190506200035c565b5050565b601f821115620003cd57620003978162000241565b620003a28462000256565b81016020851015620003b2578190505b620003ca620003c18562000256565b8301826200035b565b50505b505050565b600082821c905092915050565b6000620003f260001984600802620003d2565b1980831691505092915050565b60006200040d8383620003df565b9150826002028217905092915050565b6200042882620001a3565b67ffffffffffffffff811115620004445762000443620001ae565b5b6200045082546200020c565b6200045d82828562000382565b600060209050601f83116001811462000495576000841562000480578287015190505b6200048c8582620003ff565b865550620004fc565b601f198416620004a58662000241565b60005b82811015620004cf57848901518255600182019150602085019450602081019050620004a8565b86831015620004ef5784890151620004eb601f891682620003df565b8355505b6001600288020188555050505b505050505050565b614ba980620005146000396000f3fe6080604052600436106101cd5760003560e01c806370a08231116100f7578063a22cb46511610095578063c87b56dd11610064578063c87b56dd14610685578063ccb4918d146106c2578063e985e9c5146106ed578063f2fde38b1461072a576101cd565b8063a22cb465146105d8578063b88d4fde14610601578063c046372c1461062a578063c78f19f91461065a576101cd565b80637b47ec1a116100d15780637b47ec1a146105305780637c726b69146105595780638da5cb5b1461058257806395d89b41146105ad576101cd565b806370a08231146104b157806370cbcb43146104ee578063715018a614610519576101cd565b8063243adbdd1161016f57806342842e0e1161013e57806342842e0e146103d15780634f6ccce7146103fa5780636352211e146104375780636f1a0af514610474576101cd565b8063243adbdd146103105780632f745c591461032c5780633629493c1461036957806336b536be146103a6576101cd565b8063095ea7b3116101ab578063095ea7b31461027757806318160ddd146102a057806321f422e5146102cb57806323b872dd146102e7576101cd565b806301ffc9a7146101d257806306fdde031461020f578063081812fc1461023a575b600080fd5b3480156101de57600080fd5b506101f960048036038101906101f49190612fcb565b610753565b6040516102069190613013565b60405180910390f35b34801561021b57600080fd5b50610224610835565b60405161023191906130be565b60405180910390f35b34801561024657600080fd5b50610261600480360381019061025c9190613116565b6108c7565b60405161026e9190613184565b60405180910390f35b34801561028357600080fd5b5061029e600480360381019061029991906131cb565b61090d565b005b3480156102ac57600080fd5b506102b5610a24565b6040516102c2919061321a565b60405180910390f35b6102e560048036038101906102e09190613235565b610a31565b005b3480156102f357600080fd5b5061030e60048036038101906103099190613275565b610bad565b005b61032a60048036038101906103259190613116565b610c0d565b005b34801561033857600080fd5b50610353600480360381019061034e91906131cb565b610d75565b604051610360919061321a565b60405180910390f35b34801561037557600080fd5b50610390600480360381019061038b91906133fd565b610e1a565b60405161039d9190613013565b60405180910390f35b3480156103b257600080fd5b506103bb610e56565b6040516103c89190613577565b60405180910390f35b3480156103dd57600080fd5b506103f860048036038101906103f39190613275565b610ff0565b005b34801561040657600080fd5b50610421600480360381019061041c9190613116565b611010565b60405161042e919061321a565b60405180910390f35b34801561044357600080fd5b5061045e60048036038101906104599190613116565b611081565b60405161046b9190613184565b60405180910390f35b34801561048057600080fd5b5061049b60048036038101906104969190613116565b611132565b6040516104a891906135ee565b60405180910390f35b3480156104bd57600080fd5b506104d860048036038101906104d39190613609565b6111e4565b6040516104e5919061321a565b60405180910390f35b3480156104fa57600080fd5b5061050361129b565b6040516105109190613577565b60405180910390f35b34801561052557600080fd5b5061052e6113ff565b005b34801561053c57600080fd5b5061055760048036038101906105529190613116565b611413565b005b34801561056557600080fd5b50610580600480360381019061057b9190613116565b61141f565b005b34801561058e57600080fd5b50610597611474565b6040516105a49190613184565b60405180910390f35b3480156105b957600080fd5b506105c261149e565b6040516105cf91906130be565b60405180910390f35b3480156105e457600080fd5b506105ff60048036038101906105fa9190613662565b611530565b005b34801561060d57600080fd5b5061062860048036038101906106239190613743565b611546565b005b610644600480360381019061063f91906137c6565b6115a8565b604051610651919061321a565b60405180910390f35b34801561066657600080fd5b5061066f6116ef565b60405161067c919061321a565b60405180910390f35b34801561069157600080fd5b506106ac60048036038101906106a79190613116565b6116f5565b6040516106b991906130be565b60405180910390f35b3480156106ce57600080fd5b506106d7611807565b6040516106e4919061321a565b60405180910390f35b3480156106f957600080fd5b50610714600480360381019061070f9190613822565b611818565b6040516107219190613013565b60405180910390f35b34801561073657600080fd5b50610751600480360381019061074c9190613609565b6118ac565b005b60007f80ac58cd000000000000000000000000000000000000000000000000000000007bffffffffffffffffffffffffffffffffffffffffffffffffffffffff1916827bffffffffffffffffffffffffffffffffffffffffffffffffffffffff1916148061081e57507f5b5e139f000000000000000000000000000000000000000000000000000000007bffffffffffffffffffffffffffffffffffffffffffffffffffffffff1916827bffffffffffffffffffffffffffffffffffffffffffffffffffffffff1916145b8061082e575061082d8261192f565b5b9050919050565b60606000805461084490613891565b80601f016020809104026020016040519081016040528092919081815260200182805461087090613891565b80156108bd5780601f10610892576101008083540402835291602001916108bd565b820191906000526020600020905b8154815290600101906020018083116108a057829003601f168201915b5050505050905090565b60006108d282611999565b6004600083815260200190815260200160002060009054906101000a900473ffffffffffffffffffffffffffffffffffffffff169050919050565b600061091882611081565b90508073ffffffffffffffffffffffffffffffffffffffff168373ffffffffffffffffffffffffffffffffffffffff1603610988576040517f08c379a000000000000000000000000000000000000000000000000000000000815260040161097f90613934565b60405180910390fd5b8073ffffffffffffffffffffffffffffffffffffffff166109a76119e4565b73ffffffffffffffffffffffffffffffffffffffff1614806109d657506109d5816109d06119e4565b611818565b5b610a15576040517f08c379a0000000000000000000000000000000000000000000000000000000008152600401610a0c906139c6565b60405180910390fd5b610a1f83836119ec565b505050565b6000600b80549050905090565b3373ffffffffffffffffffffffffffffffffffffffff16610a5183611081565b73ffffffffffffffffffffffffffffffffffffffff1614610aa7576040517f08c379a0000000000000000000000000000000000000000000000000000000008152600401610a9e90613a32565b60405180910390fd5b60001515600e600084815260200190815260200160002060020160149054906101000a900460ff16151514610b11576040517f08c379a0000000000000000000000000000000000000000000000000000000008152600401610b0890613a9e565b60405180910390fd5b6008543414610b55576040517f08c379a0000000000000000000000000000000000000000000000000000000008152600401610b4c90613b30565b60405180910390fd5b6001600e600084815260200190815260200160002060020160146101000a81548160ff02191690831515021790555080600e600084815260200190815260200160002060010181905550610ba9600a611aa5565b5050565b610bbe610bb86119e4565b82611abb565b610bfd576040517f08c379a0000000000000000000000000000000000000000000000000000000008152600401610bf490613bc2565b60405180910390fd5b610c08838383611b50565b505050565b6000600e60008381526020019081526020016000206001015490506000610c3383611081565b90508073ffffffffffffffffffffffffffffffffffffffff163373ffffffffffffffffffffffffffffffffffffffff1603610ca3576040517f08c379a0000000000000000000000000000000000000000000000000000000008152600401610c9a90613c54565b60405180910390fd5b813414610ce5576040517f08c379a0000000000000000000000000000000000000000000000000000000008152600401610cdc90613ce6565b60405180910390fd5b6000600e600085815260200190815260200160002060020160146101000a81548160ff021916908315150217905550610d1e600a611db6565b610d29813385611b50565b8073ffffffffffffffffffffffffffffffffffffffff166108fc349081150290604051600060405180830381858888f19350505050158015610d6f573d6000803e3d6000fd5b50505050565b6000610d80836111e4565b8210610dc1576040517f08c379a0000000000000000000000000000000000000000000000000000000008152600401610db890613d52565b60405180910390fd5b600f60008473ffffffffffffffffffffffffffffffffffffffff1673ffffffffffffffffffffffffffffffffffffffff168152602001908152602001600020600083815260200190815260200160002054905092915050565b600060011515600d83604051610e309190613dae565b908152602001604051809103902060009054906101000a900460ff161515149050919050565b60606000610e62610a24565b9050600080610e71600a611e12565b67ffffffffffffffff811115610e8a57610e896132d2565b5b604051908082528060200260200182016040528015610ec357816020015b610eb0612ec2565b815260200190600190039081610ea85790505b50905060005b83811015610fe6576000610edc82611010565b90506000600e60008381526020019081526020016000209050600115158160020160149054906101000a900460ff16151503610fd1578060405180608001604052908160008201548152602001600182015481526020016002820160009054906101000a900473ffffffffffffffffffffffffffffffffffffffff1673ffffffffffffffffffffffffffffffffffffffff1673ffffffffffffffffffffffffffffffffffffffff1681526020016002820160149054906101000a900460ff161515151581525050848681518110610fb657610fb5613dc5565b5b6020026020010181905250600185610fce9190613e23565b94505b50508080610fde90613e57565b915050610ec9565b5080935050505090565b61100b83838360405180602001604052806000815250611546565b505050565b600061101a610a24565b821061105b576040517f08c379a000000000000000000000000000000000000000000000000000000000815260040161105290613f11565b60405180910390fd5b600b828154811061106f5761106e613dc5565b5b90600052602060002001549050919050565b6000806002600084815260200190815260200160002060009054906101000a900473ffffffffffffffffffffffffffffffffffffffff169050600073ffffffffffffffffffffffffffffffffffffffff168173ffffffffffffffffffffffffffffffffffffffff1603611129576040517f08c379a000000000000000000000000000000000000000000000000000000000815260040161112090613f7d565b60405180910390fd5b80915050919050565b61113a612ec2565b600e600083815260200190815260200160002060405180608001604052908160008201548152602001600182015481526020016002820160009054906101000a900473ffffffffffffffffffffffffffffffffffffffff1673ffffffffffffffffffffffffffffffffffffffff1673ffffffffffffffffffffffffffffffffffffffff1681526020016002820160149054906101000a900460ff1615151515815250509050919050565b60008073ffffffffffffffffffffffffffffffffffffffff168273ffffffffffffffffffffffffffffffffffffffff1603611254576040517f08c379a000000000000000000000000000000000000000000000000000000000815260040161124b9061400f565b60405180910390fd5b600360008373ffffffffffffffffffffffffffffffffffffffff1673ffffffffffffffffffffffffffffffffffffffff168152602001908152602001600020549050919050565b606060006112a8336111e4565b905060008167ffffffffffffffff8111156112c6576112c56132d2565b5b6040519080825280602002602001820160405280156112ff57816020015b6112ec612ec2565b8152602001906001900390816112e45790505b50905060005b828110156113f65760006113193383610d75565b90506000600e600083815260200190815260200160002090508060405180608001604052908160008201548152602001600182015481526020016002820160009054906101000a900473ffffffffffffffffffffffffffffffffffffffff1673ffffffffffffffffffffffffffffffffffffffff1673ffffffffffffffffffffffffffffffffffffffff1681526020016002820160149054906101000a900460ff1615151515815250508484815181106113d6576113d5613dc5565b5b6020026020010181905250505080806113ee90613e57565b915050611305565b50809250505090565b611407611e20565b6114116000611e9e565b565b61141c81611f64565b50565b611427611e20565b6000811161146a576040517f08c379a00000000000000000000000000000000000000000000000000000000081526004016114619061407b565b60405180910390fd5b8060088190555050565b6000600760009054906101000a900473ffffffffffffffffffffffffffffffffffffffff16905090565b6060600180546114ad90613891565b80601f01602080910402602001604051908101604052809291908181526020018280546114d990613891565b80156115265780601f106114fb57610100808354040283529160200191611526565b820191906000526020600020905b81548152906001019060200180831161150957829003601f168201915b5050505050905090565b61154261153b6119e4565b8383611fb7565b5050565b6115576115516119e4565b83611abb565b611596576040517f08c379a000000000000000000000000000000000000000000000000000000000815260040161158d90613bc2565b60405180910390fd5b6115a284848484612123565b50505050565b60006115b383610e1a565b156115f3576040517f08c379a00000000000000000000000000000000000000000000000000000000081526004016115ea9061410d565b60405180910390fd5b6008543414611637576040517f08c379a000000000000000000000000000000000000000000000000000000000815260040161162e90613b30565b60405180910390fd5b6116416009611aa5565b61164b600a611aa5565b6001600d8460405161165d9190613dae565b908152602001604051809103902060006101000a81548160ff021916908315150217905550600061168e6009611e12565b905061169a338261217f565b6116a4818561219d565b6116ae818461220a565b6001600d856040516116c09190613dae565b908152602001604051809103902060006101000a81548160ff0219169083151502179055508091505092915050565b60085481565b606061170082611999565b600060066000848152602001908152602001600020805461172090613891565b80601f016020809104026020016040519081016040528092919081815260200182805461174c90613891565b80156117995780601f1061176e57610100808354040283529160200191611799565b820191906000526020600020905b81548152906001019060200180831161177c57829003601f168201915b5050505050905060006117aa61235a565b905060008151036117bf578192505050611802565b6000825111156117f45780826040516020016117dc92919061412d565b60405160208183030381529060405292505050611802565b6117fd84612371565b925050505b919050565b6000611813600a611e12565b905090565b6000600560008473ffffffffffffffffffffffffffffffffffffffff1673ffffffffffffffffffffffffffffffffffffffff16815260200190815260200160002060008373ffffffffffffffffffffffffffffffffffffffff1673ffffffffffffffffffffffffffffffffffffffff16815260200190815260200160002060009054906101000a900460ff16905092915050565b6118b4611e20565b600073ffffffffffffffffffffffffffffffffffffffff168173ffffffffffffffffffffffffffffffffffffffff1603611923576040517f08c379a000000000000000000000000000000000000000000000000000000000815260040161191a906141c3565b60405180910390fd5b61192c81611e9e565b50565b60007f01ffc9a7000000000000000000000000000000000000000000000000000000007bffffffffffffffffffffffffffffffffffffffffffffffffffffffff1916827bffffffffffffffffffffffffffffffffffffffffffffffffffffffff1916149050919050565b6119a2816123d9565b6119e1576040517f08c379a00000000000000000000000000000000000000000000000000000000081526004016119d890613f7d565b60405180910390fd5b50565b600033905090565b816004600083815260200190815260200160002060006101000a81548173ffffffffffffffffffffffffffffffffffffffff021916908373ffffffffffffffffffffffffffffffffffffffff160217905550808273ffffffffffffffffffffffffffffffffffffffff16611a5f83611081565b73ffffffffffffffffffffffffffffffffffffffff167f8c5be1e5ebec7d5bd14f71427d1e84f3dd0314c0f7b2291e5b200ac8c7c3b92560405160405180910390a45050565b6001816000016000828254019250508190555050565b600080611ac783611081565b90508073ffffffffffffffffffffffffffffffffffffffff168473ffffffffffffffffffffffffffffffffffffffff161480611b095750611b088185611818565b5b80611b4757508373ffffffffffffffffffffffffffffffffffffffff16611b2f846108c7565b73ffffffffffffffffffffffffffffffffffffffff16145b91505092915050565b8273ffffffffffffffffffffffffffffffffffffffff16611b7082611081565b73ffffffffffffffffffffffffffffffffffffffff1614611bc6576040517f08c379a0000000000000000000000000000000000000000000000000000000008152600401611bbd90614255565b60405180910390fd5b600073ffffffffffffffffffffffffffffffffffffffff168273ffffffffffffffffffffffffffffffffffffffff1603611c35576040517f08c379a0000000000000000000000000000000000000000000000000000000008152600401611c2c906142e7565b60405180910390fd5b611c40838383612445565b611c4b6000826119ec565b6001600360008573ffffffffffffffffffffffffffffffffffffffff1673ffffffffffffffffffffffffffffffffffffffff1681526020019081526020016000206000828254611c9b9190614307565b925050819055506001600360008473ffffffffffffffffffffffffffffffffffffffff1673ffffffffffffffffffffffffffffffffffffffff1681526020019081526020016000206000828254611cf29190613e23565b92505081905550816002600083815260200190815260200160002060006101000a81548173ffffffffffffffffffffffffffffffffffffffff021916908373ffffffffffffffffffffffffffffffffffffffff160217905550808273ffffffffffffffffffffffffffffffffffffffff168473ffffffffffffffffffffffffffffffffffffffff167fddf252ad1be2c89b69c2b068fc378daa952ba7f163c4a11628f55a4df523b3ef60405160405180910390a4611db1838383612557565b505050565b60008160000154905060008111611e02576040517f08c379a0000000000000000000000000000000000000000000000000000000008152600401611df990614387565b60405180910390fd5b6001810382600001819055505050565b600081600001549050919050565b611e286119e4565b73ffffffffffffffffffffffffffffffffffffffff16611e46611474565b73ffffffffffffffffffffffffffffffffffffffff1614611e9c576040517f08c379a0000000000000000000000000000000000000000000000000000000008152600401611e93906143f3565b60405180910390fd5b565b6000600760009054906101000a900473ffffffffffffffffffffffffffffffffffffffff16905081600760006101000a81548173ffffffffffffffffffffffffffffffffffffffff021916908373ffffffffffffffffffffffffffffffffffffffff1602179055508173ffffffffffffffffffffffffffffffffffffffff168173ffffffffffffffffffffffffffffffffffffffff167f8be0079c531659141344cd1fd0a4f28419497f9722a3daafe3b4186f6b6457e060405160405180910390a35050565b611f6d8161255c565b6000600660008381526020019081526020016000208054611f8d90613891565b905014611fb457600660008281526020019081526020016000206000611fb39190612f02565b5b50565b8173ffffffffffffffffffffffffffffffffffffffff168373ffffffffffffffffffffffffffffffffffffffff1603612025576040517f08c379a000000000000000000000000000000000000000000000000000000000815260040161201c9061445f565b60405180910390fd5b80600560008573ffffffffffffffffffffffffffffffffffffffff1673ffffffffffffffffffffffffffffffffffffffff16815260200190815260200160002060008473ffffffffffffffffffffffffffffffffffffffff1673ffffffffffffffffffffffffffffffffffffffff16815260200190815260200160002060006101000a81548160ff0219169083151502179055508173ffffffffffffffffffffffffffffffffffffffff168373ffffffffffffffffffffffffffffffffffffffff167f17307eab39ab6107e8899845ad3d59bd9653f200f220920489ca2b5937696c31836040516121169190613013565b60405180910390a3505050565b61212e848484611b50565b61213a84848484612679565b612179576040517f08c379a0000000000000000000000000000000000000000000000000000000008152600401612170906144f1565b60405180910390fd5b50505050565b612199828260405180602001604052806000815250612800565b5050565b6121a6826123d9565b6121e5576040517f08c379a00000000000000000000000000000000000000000000000000000000081526004016121dc90614583565b60405180910390fd5b80600660008481526020019081526020016000209081612205919061474f565b505050565b6000811161224d576040517f08c379a000000000000000000000000000000000000000000000000000000000815260040161224490614893565b60405180910390fd5b60405180608001604052808381526020018281526020013373ffffffffffffffffffffffffffffffffffffffff16815260200160011515815250600e6000848152602001908152602001600020600082015181600001556020820151816001015560408201518160020160006101000a81548173ffffffffffffffffffffffffffffffffffffffff021916908373ffffffffffffffffffffffffffffffffffffffff16021790555060608201518160020160146101000a81548160ff0219169083151502179055509050507f470031062672bc0246e132c723a729c4676710ec663a29e86c88678032daddea828233600160405161234e94939291906148b3565b60405180910390a15050565b606060405180602001604052806000815250905090565b606061237c82611999565b600061238661235a565b905060008151116123a657604051806020016040528060008152506123d1565b806123b08461285b565b6040516020016123c192919061412d565b6040516020818303038152906040525b915050919050565b60008073ffffffffffffffffffffffffffffffffffffffff166002600084815260200190815260200160002060009054906101000a900473ffffffffffffffffffffffffffffffffffffffff1673ffffffffffffffffffffffffffffffffffffffff1614159050919050565b6124508383836129bb565b600073ffffffffffffffffffffffffffffffffffffffff168373ffffffffffffffffffffffffffffffffffffffff16036124925761248d816129c0565b6124d1565b8173ffffffffffffffffffffffffffffffffffffffff168373ffffffffffffffffffffffffffffffffffffffff16146124d0576124cf8382612a09565b5b5b600073ffffffffffffffffffffffffffffffffffffffff168273ffffffffffffffffffffffffffffffffffffffff16036125135761250e81612b76565b612552565b8273ffffffffffffffffffffffffffffffffffffffff168273ffffffffffffffffffffffffffffffffffffffff1614612551576125508282612c47565b5b5b505050565b505050565b600061256782611081565b905061257581600084612445565b6125806000836119ec565b6001600360008373ffffffffffffffffffffffffffffffffffffffff1673ffffffffffffffffffffffffffffffffffffffff16815260200190815260200160002060008282546125d09190614307565b925050819055506002600083815260200190815260200160002060006101000a81549073ffffffffffffffffffffffffffffffffffffffff021916905581600073ffffffffffffffffffffffffffffffffffffffff168273ffffffffffffffffffffffffffffffffffffffff167fddf252ad1be2c89b69c2b068fc378daa952ba7f163c4a11628f55a4df523b3ef60405160405180910390a461267581600084612557565b5050565b600061269a8473ffffffffffffffffffffffffffffffffffffffff16612cc6565b156127f3578373ffffffffffffffffffffffffffffffffffffffff1663150b7a026126c36119e4565b8786866040518563ffffffff1660e01b81526004016126e5949392919061494d565b6020604051808303816000875af192505050801561272157506040513d601f19601f8201168201806040525081019061271e91906149ae565b60015b6127a3573d8060008114612751576040519150601f19603f3d011682016040523d82523d6000602084013e612756565b606091505b50600081510361279b576040517f08c379a0000000000000000000000000000000000000000000000000000000008152600401612792906144f1565b60405180910390fd5b805181602001fd5b63150b7a0260e01b7bffffffffffffffffffffffffffffffffffffffffffffffffffffffff1916817bffffffffffffffffffffffffffffffffffffffffffffffffffffffff1916149150506127f8565b600190505b949350505050565b61280a8383612ce9565b6128176000848484612679565b612856576040517f08c379a000000000000000000000000000000000000000000000000000000000815260040161284d906144f1565b60405180910390fd5b505050565b6060600082036128a2576040518060400160405280600181526020017f300000000000000000000000000000000000000000000000000000000000000081525090506129b6565b600082905060005b600082146128d45780806128bd90613e57565b915050600a826128cd9190614a0a565b91506128aa565b60008167ffffffffffffffff8111156128f0576128ef6132d2565b5b6040519080825280601f01601f1916602001820160405280156129225781602001600182028036833780820191505090505b5090505b600085146129af5760018261293b9190614307565b9150600a8561294a9190614a3b565b60306129569190613e23565b60f81b81838151811061296c5761296b613dc5565b5b60200101907effffffffffffffffffffffffffffffffffffffffffffffffffffffffffffff1916908160001a905350600a856129a89190614a0a565b9450612926565b8093505050505b919050565b505050565b600b805490506010600083815260200190815260200160002081905550600b81908060018154018082558091505060019003906000526020600020016000909190919091505550565b60006001612a16846111e4565b612a209190614307565b90506000600c6000848152602001908152602001600020549050818114612b05576000600f60008673ffffffffffffffffffffffffffffffffffffffff1673ffffffffffffffffffffffffffffffffffffffff168152602001908152602001600020600084815260200190815260200160002054905080600f60008773ffffffffffffffffffffffffffffffffffffffff1673ffffffffffffffffffffffffffffffffffffffff16815260200190815260200160002060008481526020019081526020016000208190555081600c600083815260200190815260200160002081905550505b600c600084815260200190815260200160002060009055600f60008573ffffffffffffffffffffffffffffffffffffffff1673ffffffffffffffffffffffffffffffffffffffff16815260200190815260200160002060008381526020019081526020016000206000905550505050565b60006001600b80549050612b8a9190614307565b90506000601060008481526020019081526020016000205490506000600b8381548110612bba57612bb9613dc5565b5b9060005260206000200154905080600b8381548110612bdc57612bdb613dc5565b5b90600052602060002001819055508160106000838152602001908152602001600020819055506010600085815260200190815260200160002060009055600b805480612c2b57612c2a614a6c565b5b6001900381819060005260206000200160009055905550505050565b6000612c52836111e4565b905081600f60008573ffffffffffffffffffffffffffffffffffffffff1673ffffffffffffffffffffffffffffffffffffffff16815260200190815260200160002060008381526020019081526020016000208190555080600c600084815260200190815260200160002081905550505050565b6000808273ffffffffffffffffffffffffffffffffffffffff163b119050919050565b600073ffffffffffffffffffffffffffffffffffffffff168273ffffffffffffffffffffffffffffffffffffffff1603612d58576040517f08c379a0000000000000000000000000000000000000000000000000000000008152600401612d4f90614ae7565b60405180910390fd5b612d61816123d9565b15612da1576040517f08c379a0000000000000000000000000000000000000000000000000000000008152600401612d9890614b53565b60405180910390fd5b612dad60008383612445565b6001600360008473ffffffffffffffffffffffffffffffffffffffff1673ffffffffffffffffffffffffffffffffffffffff1681526020019081526020016000206000828254612dfd9190613e23565b92505081905550816002600083815260200190815260200160002060006101000a81548173ffffffffffffffffffffffffffffffffffffffff021916908373ffffffffffffffffffffffffffffffffffffffff160217905550808273ffffffffffffffffffffffffffffffffffffffff16600073ffffffffffffffffffffffffffffffffffffffff167fddf252ad1be2c89b69c2b068fc378daa952ba7f163c4a11628f55a4df523b3ef60405160405180910390a4612ebe60008383612557565b5050565b60405180608001604052806000815260200160008152602001600073ffffffffffffffffffffffffffffffffffffffff1681526020016000151581525090565b508054612f0e90613891565b6000825580601f10612f205750612f3f565b601f016020900490600052602060002090810190612f3e9190612f42565b5b50565b5b80821115612f5b576000816000905550600101612f43565b5090565b6000604051905090565b600080fd5b600080fd5b60007fffffffff0000000000000000000000000000000000000000000000000000000082169050919050565b612fa881612f73565b8114612fb357600080fd5b50565b600081359050612fc581612f9f565b92915050565b600060208284031215612fe157612fe0612f69565b5b6000612fef84828501612fb6565b91505092915050565b60008115159050919050565b61300d81612ff8565b82525050565b60006020820190506130286000830184613004565b92915050565b600081519050919050565b600082825260208201905092915050565b60005b8381101561306857808201518184015260208101905061304d565b60008484015250505050565b6000601f19601f8301169050919050565b60006130908261302e565b61309a8185613039565b93506130aa81856020860161304a565b6130b381613074565b840191505092915050565b600060208201905081810360008301526130d88184613085565b905092915050565b6000819050919050565b6130f3816130e0565b81146130fe57600080fd5b50565b600081359050613110816130ea565b92915050565b60006020828403121561312c5761312b612f69565b5b600061313a84828501613101565b91505092915050565b600073ffffffffffffffffffffffffffffffffffffffff82169050919050565b600061316e82613143565b9050919050565b61317e81613163565b82525050565b60006020820190506131996000830184613175565b92915050565b6131a881613163565b81146131b357600080fd5b50565b6000813590506131c58161319f565b92915050565b600080604083850312156131e2576131e1612f69565b5b60006131f0858286016131b6565b925050602061320185828601613101565b9150509250929050565b613214816130e0565b82525050565b600060208201905061322f600083018461320b565b92915050565b6000806040838503121561324c5761324b612f69565b5b600061325a85828601613101565b925050602061326b85828601613101565b9150509250929050565b60008060006060848603121561328e5761328d612f69565b5b600061329c868287016131b6565b93505060206132ad868287016131b6565b92505060406132be86828701613101565b9150509250925092565b600080fd5b600080fd5b7f4e487b7100000000000000000000000000000000000000000000000000000000600052604160045260246000fd5b61330a82613074565b810181811067ffffffffffffffff82111715613329576133286132d2565b5b80604052505050565b600061333c612f5f565b90506133488282613301565b919050565b600067ffffffffffffffff821115613368576133676132d2565b5b61337182613074565b9050602081019050919050565b82818337600083830152505050565b60006133a061339b8461334d565b613332565b9050828152602081018484840111156133bc576133bb6132cd565b5b6133c784828561337e565b509392505050565b600082601f8301126133e4576133e36132c8565b5b81356133f484826020860161338d565b91505092915050565b60006020828403121561341357613412612f69565b5b600082013567ffffffffffffffff81111561343157613430612f6e565b5b61343d848285016133cf565b91505092915050565b600081519050919050565b600082825260208201905092915050565b6000819050602082019050919050565b61347b816130e0565b82525050565b61348a81613163565b82525050565b61349981612ff8565b82525050565b6080820160008201516134b56000850182613472565b5060208201516134c86020850182613472565b5060408201516134db6040850182613481565b5060608201516134ee6060850182613490565b50505050565b6000613500838361349f565b60808301905092915050565b6000602082019050919050565b600061352482613446565b61352e8185613451565b935061353983613462565b8060005b8381101561356a57815161355188826134f4565b975061355c8361350c565b92505060018101905061353d565b5085935050505092915050565b600060208201905081810360008301526135918184613519565b905092915050565b6080820160008201516135af6000850182613472565b5060208201516135c26020850182613472565b5060408201516135d56040850182613481565b5060608201516135e86060850182613490565b50505050565b60006080820190506136036000830184613599565b92915050565b60006020828403121561361f5761361e612f69565b5b600061362d848285016131b6565b91505092915050565b61363f81612ff8565b811461364a57600080fd5b50565b60008135905061365c81613636565b92915050565b6000806040838503121561367957613678612f69565b5b6000613687858286016131b6565b92505060206136988582860161364d565b9150509250929050565b600067ffffffffffffffff8211156136bd576136bc6132d2565b5b6136c682613074565b9050602081019050919050565b60006136e66136e1846136a2565b613332565b905082815260208101848484011115613702576137016132cd565b5b61370d84828561337e565b509392505050565b600082601f83011261372a576137296132c8565b5b813561373a8482602086016136d3565b91505092915050565b6000806000806080858703121561375d5761375c612f69565b5b600061376b878288016131b6565b945050602061377c878288016131b6565b935050604061378d87828801613101565b925050606085013567ffffffffffffffff8111156137ae576137ad612f6e565b5b6137ba87828801613715565b91505092959194509250565b600080604083850312156137dd576137dc612f69565b5b600083013567ffffffffffffffff8111156137fb576137fa612f6e565b5b613807858286016133cf565b925050602061381885828601613101565b9150509250929050565b6000806040838503121561383957613838612f69565b5b6000613847858286016131b6565b9250506020613858858286016131b6565b9150509250929050565b7f4e487b7100000000000000000000000000000000000000000000000000000000600052602260045260246000fd5b600060028204905060018216806138a957607f821691505b6020821081036138bc576138bb613862565b5b50919050565b7f4552433732313a20617070726f76616c20746f2063757272656e74206f776e6560008201527f7200000000000000000000000000000000000000000000000000000000000000602082015250565b600061391e602183613039565b9150613929826138c2565b604082019050919050565b6000602082019050818103600083015261394d81613911565b9050919050565b7f4552433732313a20617070726f76652063616c6c6572206973206e6f7420746f60008201527f6b656e206f776e6572206e6f7220617070726f76656420666f7220616c6c0000602082015250565b60006139b0603e83613039565b91506139bb82613954565b604082019050919050565b600060208201905081810360008301526139df816139a3565b9050919050565b7f596f7520617265206e6f74206f776e6572206f662074686973206e6674000000600082015250565b6000613a1c601d83613039565b9150613a27826139e6565b602082019050919050565b60006020820190508181036000830152613a4b81613a0f565b9050919050565b7f4974656d20697320616c7265616479206f6e2073616c65000000000000000000600082015250565b6000613a88601783613039565b9150613a9382613a52565b602082019050919050565b60006020820190508181036000830152613ab781613a7b565b9050919050565b7f5072696365206d75737420626520657175616c20746f206c697374696e67207060008201527f7269636500000000000000000000000000000000000000000000000000000000602082015250565b6000613b1a602483613039565b9150613b2582613abe565b604082019050919050565b60006020820190508181036000830152613b4981613b0d565b9050919050565b7f4552433732313a2063616c6c6572206973206e6f7420746f6b656e206f776e6560008201527f72206e6f7220617070726f766564000000000000000000000000000000000000602082015250565b6000613bac602e83613039565b9150613bb782613b50565b604082019050919050565b60006020820190508181036000830152613bdb81613b9f565b9050919050565b7f4e66744d61726b65743a20596f752063616e6e6f742062757920796f7572206f60008201527f776e204e46540000000000000000000000000000000000000000000000000000602082015250565b6000613c3e602683613039565b9150613c4982613be2565b604082019050919050565b60006020820190508181036000830152613c6d81613c31565b9050919050565b7f4e66744d61726b65743a205072696365206d75737420626520657175616c207460008201527f6f20746865204e46542070726963650000000000000000000000000000000000602082015250565b6000613cd0602f83613039565b9150613cdb82613c74565b604082019050919050565b60006020820190508181036000830152613cff81613cc3565b9050919050565b7f496e646578206f7574206f6620626f756e647300000000000000000000000000600082015250565b6000613d3c601383613039565b9150613d4782613d06565b602082019050919050565b60006020820190508181036000830152613d6b81613d2f565b9050919050565b600081905092915050565b6000613d888261302e565b613d928185613d72565b9350613da281856020860161304a565b80840191505092915050565b6000613dba8284613d7d565b915081905092915050565b7f4e487b7100000000000000000000000000000000000000000000000000000000600052603260045260246000fd5b7f4e487b7100000000000000000000000000000000000000000000000000000000600052601160045260246000fd5b6000613e2e826130e0565b9150613e39836130e0565b9250828201905080821115613e5157613e50613df4565b5b92915050565b6000613e62826130e0565b91507fffffffffffffffffffffffffffffffffffffffffffffffffffffffffffffffff8203613e9457613e93613df4565b5b600182019050919050565b7f455243373231456e756d657261626c653a20676c6f62616c20696e646578206f60008201527f7574206f6620626f756e64730000000000000000000000000000000000000000602082015250565b6000613efb602c83613039565b9150613f0682613e9f565b604082019050919050565b60006020820190508181036000830152613f2a81613eee565b9050919050565b7f4552433732313a20696e76616c696420746f6b656e2049440000000000000000600082015250565b6000613f67601883613039565b9150613f7282613f31565b602082019050919050565b60006020820190508181036000830152613f9681613f5a565b9050919050565b7f4552433732313a2061646472657373207a65726f206973206e6f74206120766160008201527f6c6964206f776e65720000000000000000000000000000000000000000000000602082015250565b6000613ff9602983613039565b915061400482613f9d565b604082019050919050565b6000602082019050818103600083015261402881613fec565b9050919050565b7f5072696365206d757374206265206174206c6561737420312077656900000000600082015250565b6000614065601c83613039565b91506140708261402f565b602082019050919050565b6000602082019050818103600083015261409481614058565b9050919050565b7f4e66744d61726b65743a20546f6b656e2055524920616c72656164792065786960008201527f7374730000000000000000000000000000000000000000000000000000000000602082015250565b60006140f7602383613039565b91506141028261409b565b604082019050919050565b60006020820190508181036000830152614126816140ea565b9050919050565b60006141398285613d7d565b91506141458284613d7d565b91508190509392505050565b7f4f776e61626c653a206e6577206f776e657220697320746865207a65726f206160008201527f6464726573730000000000000000000000000000000000000000000000000000602082015250565b60006141ad602683613039565b91506141b882614151565b604082019050919050565b600060208201905081810360008301526141dc816141a0565b9050919050565b7f4552433732313a207472616e736665722066726f6d20696e636f72726563742060008201527f6f776e6572000000000000000000000000000000000000000000000000000000602082015250565b600061423f602583613039565b915061424a826141e3565b604082019050919050565b6000602082019050818103600083015261426e81614232565b9050919050565b7f4552433732313a207472616e7366657220746f20746865207a65726f2061646460008201527f7265737300000000000000000000000000000000000000000000000000000000602082015250565b60006142d1602483613039565b91506142dc82614275565b604082019050919050565b60006020820190508181036000830152614300816142c4565b9050919050565b6000614312826130e0565b915061431d836130e0565b925082820390508181111561433557614334613df4565b5b92915050565b7f436f756e7465723a2064656372656d656e74206f766572666c6f770000000000600082015250565b6000614371601b83613039565b915061437c8261433b565b602082019050919050565b600060208201905081810360008301526143a081614364565b9050919050565b7f4f776e61626c653a2063616c6c6572206973206e6f7420746865206f776e6572600082015250565b60006143dd602083613039565b91506143e8826143a7565b602082019050919050565b6000602082019050818103600083015261440c816143d0565b9050919050565b7f4552433732313a20617070726f766520746f2063616c6c657200000000000000600082015250565b6000614449601983613039565b915061445482614413565b602082019050919050565b600060208201905081810360008301526144788161443c565b9050919050565b7f4552433732313a207472616e7366657220746f206e6f6e20455243373231526560008201527f63656976657220696d706c656d656e7465720000000000000000000000000000602082015250565b60006144db603283613039565b91506144e68261447f565b604082019050919050565b6000602082019050818103600083015261450a816144ce565b9050919050565b7f45524337323155524953746f726167653a2055524920736574206f66206e6f6e60008201527f6578697374656e7420746f6b656e000000000000000000000000000000000000602082015250565b600061456d602e83613039565b915061457882614511565b604082019050919050565b6000602082019050818103600083015261459c81614560565b9050919050565b60008190508160005260206000209050919050565b60006020601f8301049050919050565b600082821b905092915050565b6000600883026146057fffffffffffffffffffffffffffffffffffffffffffffffffffffffffffffffff826145c8565b61460f86836145c8565b95508019841693508086168417925050509392505050565b6000819050919050565b600061464c614647614642846130e0565b614627565b6130e0565b9050919050565b6000819050919050565b61466683614631565b61467a61467282614653565b8484546145d5565b825550505050565b600090565b61468f614682565b61469a81848461465d565b505050565b5b818110156146be576146b3600082614687565b6001810190506146a0565b5050565b601f821115614703576146d4816145a3565b6146dd846145b8565b810160208510156146ec578190505b6147006146f8856145b8565b83018261469f565b50505b505050565b600082821c905092915050565b600061472660001984600802614708565b1980831691505092915050565b600061473f8383614715565b9150826002028217905092915050565b6147588261302e565b67ffffffffffffffff811115614771576147706132d2565b5b61477b8254613891565b6147868282856146c2565b600060209050601f8311600181146147b957600084156147a7578287015190505b6147b18582614733565b865550614819565b601f1984166147c7866145a3565b60005b828110156147ef578489015182556001820191506020850194506020810190506147ca565b8683101561480c5784890151614808601f891682614715565b8355505b6001600288020188555050505b505050505050565b7f4e66744d61726b65743a205072696365206d757374206265206772656174657260008201527f207468616e203000000000000000000000000000000000000000000000000000602082015250565b600061487d602783613039565b915061488882614821565b604082019050919050565b600060208201905081810360008301526148ac81614870565b9050919050565b60006080820190506148c8600083018761320b565b6148d5602083018661320b565b6148e26040830185613175565b6148ef6060830184613004565b95945050505050565b600081519050919050565b600082825260208201905092915050565b600061491f826148f8565b6149298185614903565b935061493981856020860161304a565b61494281613074565b840191505092915050565b60006080820190506149626000830187613175565b61496f6020830186613175565b61497c604083018561320b565b818103606083015261498e8184614914565b905095945050505050565b6000815190506149a881612f9f565b92915050565b6000602082840312156149c4576149c3612f69565b5b60006149d284828501614999565b91505092915050565b7f4e487b7100000000000000000000000000000000000000000000000000000000600052601260045260246000fd5b6000614a15826130e0565b9150614a20836130e0565b925082614a3057614a2f6149db565b5b828204905092915050565b6000614a46826130e0565b9150614a51836130e0565b925082614a6157614a606149db565b5b828206905092915050565b7f4e487b7100000000000000000000000000000000000000000000000000000000600052603160045260246000fd5b7f4552433732313a206d696e7420746f20746865207a65726f2061646472657373600082015250565b6000614ad1602083613039565b9150614adc82614a9b565b602082019050919050565b60006020820190508181036000830152614b0081614ac4565b9050919050565b7f4552433732313a20746f6b656e20616c7265616479206d696e74656400000000600082015250565b6000614b3d601c83613039565b9150614b4882614b07565b602082019050919050565b60006020820190508181036000830152614b6c81614b30565b905091905056fea264697066735822122062c59995bb35060b36b2411f2f9a3714ff427ba8d4ea9ca73bfffd52f9d07c8364736f6c63430008110033",
  "immutableReferences": {},
  "source": "// SPDX-License-Identifier: MIT\npragma solidity >=0.4.22 <0.9.0;\n\nimport \"@openzeppelin/contracts/token/ERC721/extensions/ERC721URIStorage.sol\";\nimport \"@openzeppelin/contracts/utils/Counters.sol\";\nimport \"@openzeppelin/contracts/access/Ownable.sol\";\n\ncontract NftMarket is ERC721URIStorage, Ownable {\n    using Counters for Counters.Counter;\n\n    // Listing price of the NFT\n    uint256 public listingPrice = 0.025 ether;\n\n    Counters.Counter private _tokenIds;\n    Counters.Counter private _listedItems;\n\n    // All NFTs in an array\n    uint256[] private _allNfts;\n\n    // Mapping between tokenId and the index of the token in the tokenIds array\n    mapping(uint256 => uint256) private _idToOwnedIndex;\n\n    // Mapping to store the tokenURI of a token\n    mapping(string => bool) private _usedTokenURIs;\n\n    // Mapping to store the NftItem of a token\n    mapping(uint256 => NftItem) private _idToNftItem;\n\n    // Mapping of the owned NFTs for each address\n    mapping(address => mapping(uint256 => uint256)) private _ownedTokens;\n\n    // Mapping to store the index of the token to tokenIds array\n    mapping(uint256 => uint256) private _idToNftIndex;\n\n    // NftItem struct to store the tokenId, price, creator and isListed\n    struct NftItem {\n        uint256 tokenId;\n        uint256 price;\n        address creator;\n        bool isListed;\n    }\n\n    // Events\n    event NftItemCreated(\n        uint256 tokenId,\n        uint256 price,\n        address creator,\n        bool isListed\n    );\n\n    constructor() ERC721(\"CreaturesNFT\", \"CNFT\") {}\n\n    /**\n     * Set the listing price of the NFT\n     * @param newPrice The new listing price\n     */\n    function setListingPrice(uint256 newPrice) external onlyOwner {\n        require(newPrice > 0, \"Price must be at least 1 wei\");\n        listingPrice = newPrice;\n    }\n\n    /**\n     * Gets the NftItem of a token\n     * @param tokenId The tokenId of the token\n     * @return id The tokenId of the token\n     */\n    function getNftItem(uint256 tokenId) public view returns (NftItem memory) {\n        return _idToNftItem[tokenId];\n    }\n\n    /**\n     * Gets the total number of tokens minted\n     * @return The total number of tokens minted\n     */\n    function listedItemsCount() public view returns (uint256) {\n        return _listedItems.current();\n    }\n\n    /**\n     * Checks if a tokenURI has been used before\n     * @param tokenURI The tokenURI of the token\n     * @return True if the tokenURI has been used before\n     */\n    function tokenUriExists(string memory tokenURI) public view returns (bool) {\n        return _usedTokenURIs[tokenURI] == true;\n    }\n\n    /**\n     * @dev Total number of tokens minted\n     */\n    function totalSupply() public view returns (uint256) {\n        return _allNfts.length;\n    }\n\n    /**\n     * Gets the token at a given index\n     * @param index The index of the token\n     * @return TokenId of the token\n     */\n    function tokenByIndex(uint256 index) public view returns (uint256) {\n        require(\n            index < totalSupply(),\n            \"ERC721Enumerable: global index out of bounds\"\n        );\n        return _allNfts[index];\n    }\n\n    /**\n     * Gets the token at a given index of the tokens list of the requested owner\n     * @param owner Address of the token owner\n     * @param index uint256 representing the index to be accessed of the requested tokens list\n     */\n    function tokenOfOwnerByIndex(address owner, uint256 index)\n        public\n        view\n        returns (uint256)\n    {\n        require(index < ERC721.balanceOf(owner), \"Index out of bounds\");\n        return _ownedTokens[owner][index];\n    }\n\n    /**\n     * Gets all the NFTs on sale\n     */\n    function getAllNftsOnSale() public view returns (NftItem[] memory) {\n        uint256 allItemsCounts = totalSupply();\n        uint256 currentIndex = 0;\n        NftItem[] memory items = new NftItem[](_listedItems.current());\n\n        for (uint256 i = 0; i < allItemsCounts; i++) {\n            uint256 tokenId = tokenByIndex(i);\n            NftItem storage item = _idToNftItem[tokenId];\n\n            if (item.isListed == true) {\n                items[currentIndex] = item;\n                currentIndex += 1;\n            }\n        }\n\n        return items;\n    }\n\n    /**\n     * Gets all the NFTs owned by the user\n     */\n    function getOwnedNfts() public view returns (NftItem[] memory) {\n        uint256 ownedItemsCount = ERC721.balanceOf(msg.sender);\n        NftItem[] memory items = new NftItem[](ownedItemsCount);\n\n        for (uint256 i = 0; i < ownedItemsCount; i++) {\n            uint256 tokenId = tokenOfOwnerByIndex(msg.sender, i);\n            NftItem storage item = _idToNftItem[tokenId];\n            items[i] = item;\n        }\n\n        return items;\n    }\n\n    /**\n     * Mints a new token\n     * @param tokenURI The tokenURI of the token\n     * @param price The price of the token\n     * @return TokenId of the token\n     */\n    function mintToken(string memory tokenURI, uint256 price)\n        public\n        payable\n        returns (uint256)\n    {\n        require(\n            !tokenUriExists(tokenURI),\n            \"NftMarket: Token URI already exists\"\n        );\n        require(\n            msg.value == listingPrice,\n            \"Price must be equal to listing price\"\n        );\n\n        _tokenIds.increment();\n        _listedItems.increment();\n        _usedTokenURIs[tokenURI] = true;\n\n        uint256 newTokenId = _tokenIds.current();\n\n        _safeMint(msg.sender, newTokenId);\n        _setTokenURI(newTokenId, tokenURI);\n        _createNftItem(newTokenId, price);\n        _usedTokenURIs[tokenURI] = true;\n\n        return newTokenId;\n    }\n\n    /**\n     * Buys a token\n     * @param tokenId The tokenId of the token\n     */\n    function buyNft(uint256 tokenId) public payable {\n        uint256 price = _idToNftItem[tokenId].price;\n        address owner = ERC721.ownerOf(tokenId);\n\n        require(msg.sender != owner, \"NftMarket: You cannot buy your own NFT\");\n        require(\n            msg.value == price,\n            \"NftMarket: Price must be equal to the NFT price\"\n        );\n\n        _idToNftItem[tokenId].isListed = false;\n        _listedItems.decrement();\n\n        _transfer(owner, msg.sender, tokenId);\n        payable(owner).transfer(msg.value);\n    }\n\n    /**\n     * Places a token on sale\n     * @param tokenId The tokenId of the token\n     * @param newPrice The new price of the token\n     */\n    function placeNftOnSale(uint256 tokenId, uint256 newPrice) public payable {\n        require(\n            ERC721.ownerOf(tokenId) == msg.sender,\n            \"You are not owner of this nft\"\n        );\n        require(\n            _idToNftItem[tokenId].isListed == false,\n            \"Item is already on sale\"\n        );\n        require(\n            msg.value == listingPrice,\n            \"Price must be equal to listing price\"\n        );\n\n        _idToNftItem[tokenId].isListed = true;\n        _idToNftItem[tokenId].price = newPrice;\n        _listedItems.increment();\n    }\n\n    /**\n     * Creates a new NftItem\n     * @param tokenId The tokenId of the token\n     * @param price The price of the token\n     */\n    function _createNftItem(uint256 tokenId, uint256 price) private {\n        require(price > 0, \"NftMarket: Price must be greater than 0\");\n\n        _idToNftItem[tokenId] = NftItem(tokenId, price, msg.sender, true);\n\n        emit NftItemCreated(tokenId, price, msg.sender, true);\n    }\n\n    /**\n     * Burns a token\n     * @param tokenId The tokenId of the token\n     */\n    function burnToken(uint256 tokenId) public {\n        _burn(tokenId);\n    }\n\n    /**\n     *  Adds the token to a list of all tokens that have been minted by the contract\n     *  @param from The address of the owner of the token\n     *  @param to The address of the new owner of the token\n     *  @param tokenId The tokenId of the token\n     */\n    function _beforeTokenTransfer(\n        address from,\n        address to,\n        uint256 tokenId\n    ) internal virtual override {\n        super._beforeTokenTransfer(from, to, tokenId);\n\n        // Minting token\n        if (from == address(0)) {\n            _addTokenToAllTokensEnumeration(tokenId);\n        } else if (from != to) {\n            _removeTokenFromOwnerEnumeration(from, tokenId);\n        }\n\n        if (to == address(0)) {\n            _removeTokenFromAllEnumeration(tokenId);\n        } else if (to != from) {\n            _addTokenToOwnerTokensEnumeration(to, tokenId);\n        }\n    }\n\n    /**\n     * Adds a token to the allTokens array...\n     * ...to keep track of all the tokens that have been...\n     * ...minted by the smart contract.\n     * @param tokenId The tokenId of the token\n     */\n    function _addTokenToAllTokensEnumeration(uint256 tokenId) private {\n        _idToNftIndex[tokenId] = _allNfts.length;\n        _allNfts.push(tokenId);\n    }\n\n    /**\n     * Adds a token to the ownerTokens array...\n     * ...to keep track of tokens owned by an address\n     * @param to The address of the owner of the token\n     * @param tokenId The tokenId of the token\n     */\n    function _addTokenToOwnerTokensEnumeration(address to, uint256 tokenId)\n        private\n    {\n        uint256 length = ERC721.balanceOf(to);\n\n        _ownedTokens[to][length] = tokenId;\n        _idToOwnedIndex[tokenId] = length;\n    }\n\n    /**\n     * Removes a token from the allTokens array...\n     * ...to keep track of all the tokens that have been...\n     * ...burned by the owner\n     * @param tokenId The tokenId of the token\n     */\n\n    function _removeTokenFromAllEnumeration(uint256 tokenId) private {\n        uint256 lastTokenIndex = _allNfts.length - 1;\n        uint256 tokenIndex = _idToNftIndex[tokenId];\n\n        uint256 lastTokenId = _allNfts[lastTokenIndex];\n\n        _allNfts[tokenIndex] = lastTokenId;\n        _idToNftIndex[lastTokenId] = tokenIndex;\n\n        delete _idToNftIndex[tokenId];\n        _allNfts.pop();\n    }\n\n    /**\n     * Removes a token from the ownerTokens array...\n     * ...to keep track of tokens owned by an address\n     * @param from The address of the owner of the token\n     * @param tokenId The tokenId of the token\n     */\n    function _removeTokenFromOwnerEnumeration(address from, uint256 tokenId)\n        private\n    {\n        uint256 lastTokenIndex = ERC721.balanceOf(from) - 1;\n        uint256 tokenIndex = _idToOwnedIndex[tokenId];\n\n        if (tokenIndex != lastTokenIndex) {\n            uint256 lastTokenId = _ownedTokens[from][lastTokenIndex];\n\n            _ownedTokens[from][tokenIndex] = lastTokenId;\n            _idToOwnedIndex[lastTokenId] = tokenIndex;\n        }\n\n        delete _idToOwnedIndex[tokenId];\n        delete _ownedTokens[from][lastTokenIndex];\n    }\n}\n",
  "sourcePath": "/Users/erdal/blockchain/nft-marketplace/contracts/NftMarket.sol",
  "compiler": {
    "name": "solc",
    "version": "0.8.17+commit.8df45f5f.Emscripten.clang"
  },
  "schemaVersion": "3.4.10",
  "updatedAt": "2023-01-18T11:26:21.661Z",
  "networkType": "ethereum",
  "devdoc": {
    "kind": "dev",
    "methods": {
      "approve(address,uint256)": {
        "details": "See {IERC721-approve}."
      },
      "balanceOf(address)": {
        "details": "See {IERC721-balanceOf}."
      },
      "burnToken(uint256)": {
        "params": {
          "tokenId": "The tokenId of the token"
        }
      },
      "buyNft(uint256)": {
        "params": {
          "tokenId": "The tokenId of the token"
        }
      },
      "getApproved(uint256)": {
        "details": "See {IERC721-getApproved}."
      },
      "getNftItem(uint256)": {
        "params": {
          "tokenId": "The tokenId of the token"
        },
        "returns": {
          "_0": "id The tokenId of the token"
        }
      },
      "isApprovedForAll(address,address)": {
        "details": "See {IERC721-isApprovedForAll}."
      },
      "listedItemsCount()": {
        "returns": {
          "_0": "The total number of tokens minted"
        }
      },
      "mintToken(string,uint256)": {
        "params": {
          "price": "The price of the token",
          "tokenURI": "The tokenURI of the token"
        },
        "returns": {
          "_0": "TokenId of the token"
        }
      },
      "name()": {
        "details": "See {IERC721Metadata-name}."
      },
      "owner()": {
        "details": "Returns the address of the current owner."
      },
      "ownerOf(uint256)": {
        "details": "See {IERC721-ownerOf}."
      },
      "placeNftOnSale(uint256,uint256)": {
        "params": {
          "newPrice": "The new price of the token",
          "tokenId": "The tokenId of the token"
        }
      },
      "renounceOwnership()": {
        "details": "Leaves the contract without owner. It will not be possible to call `onlyOwner` functions anymore. Can only be called by the current owner. NOTE: Renouncing ownership will leave the contract without an owner, thereby removing any functionality that is only available to the owner."
      },
      "safeTransferFrom(address,address,uint256)": {
        "details": "See {IERC721-safeTransferFrom}."
      },
      "safeTransferFrom(address,address,uint256,bytes)": {
        "details": "See {IERC721-safeTransferFrom}."
      },
      "setApprovalForAll(address,bool)": {
        "details": "See {IERC721-setApprovalForAll}."
      },
      "setListingPrice(uint256)": {
        "params": {
          "newPrice": "The new listing price"
        }
      },
      "supportsInterface(bytes4)": {
        "details": "See {IERC165-supportsInterface}."
      },
      "symbol()": {
        "details": "See {IERC721Metadata-symbol}."
      },
      "tokenByIndex(uint256)": {
        "params": {
          "index": "The index of the token"
        },
        "returns": {
          "_0": "TokenId of the token"
        }
      },
      "tokenOfOwnerByIndex(address,uint256)": {
        "params": {
          "index": "uint256 representing the index to be accessed of the requested tokens list",
          "owner": "Address of the token owner"
        }
      },
      "tokenURI(uint256)": {
        "details": "See {IERC721Metadata-tokenURI}."
      },
      "tokenUriExists(string)": {
        "params": {
          "tokenURI": "The tokenURI of the token"
        },
        "returns": {
          "_0": "True if the tokenURI has been used before"
        }
      },
      "totalSupply()": {
        "details": "Total number of tokens minted"
      },
      "transferFrom(address,address,uint256)": {
        "details": "See {IERC721-transferFrom}."
      },
      "transferOwnership(address)": {
        "details": "Transfers ownership of the contract to a new account (`newOwner`). Can only be called by the current owner."
      }
    },
    "version": 1
  },
  "userdoc": {
    "kind": "user",
    "methods": {
      "burnToken(uint256)": {
        "notice": "Burns a token"
      },
      "buyNft(uint256)": {
        "notice": "Buys a token"
      },
      "getAllNftsOnSale()": {
        "notice": "Gets all the NFTs on sale"
      },
      "getNftItem(uint256)": {
        "notice": "Gets the NftItem of a token"
      },
      "getOwnedNfts()": {
        "notice": "Gets all the NFTs owned by the user"
      },
      "listedItemsCount()": {
        "notice": "Gets the total number of tokens minted"
      },
      "mintToken(string,uint256)": {
        "notice": "Mints a new token"
      },
      "placeNftOnSale(uint256,uint256)": {
        "notice": "Places a token on sale"
      },
      "setListingPrice(uint256)": {
        "notice": "Set the listing price of the NFT"
      },
      "tokenByIndex(uint256)": {
        "notice": "Gets the token at a given index"
      },
      "tokenOfOwnerByIndex(address,uint256)": {
        "notice": "Gets the token at a given index of the tokens list of the requested owner"
      },
      "tokenUriExists(string)": {
        "notice": "Checks if a tokenURI has been used before"
      }
    },
    "version": 1
  }
}